S0170000506F776572537570706C79315F354B2E7372656363
S11300000C9434000C9451000C9451000C94510045
S11300100C9451000C9451000C9451000C94510018
S11300200C9451000C9451000C9451000C94510008
S11300300C9451000C9451000C9451000C945100F8
S11300400C9453000C9451000C9451000C945100E6
S11300500C9451000C9451000C9451000C945100D8
S11300600C9451000C94510011241FBECFEFD8E022
S1130070DEBFCDBF11E0A0E0B1E0EAE1F4E002C0F0
S113008005900D92AC31B107D9F721E0ACE1B1E0B4
S113009001C01D92A132B207E1F70E94A0000C94A6
S11300A00B020C9400001F920F920FB60F921124B2
S11300B02F933F934F935F936F937F938F939F936C
S11300C0AF93BF93EF93FF9388E186BD80911D01A9
S11300D090911E01883E23E0920730F4019690939C
S11300E01E0180931D010CC010921E0110921D016F
S11300F060E088E290E00E94D50081E080931F01D7
S1130100FF91EF91BF91AF919F918F917F916F91EB
S11301105F914F913F912F910F900FBE0F901F90C1
S113012018950E943D0120911C0181E0820F80936B
S11301301C0130E044E063E082E00E94AC010895D9
S1130140389A409A2FEF83EC99E0215080409040F8
S1130150E1F700C0000040980E944A0163E080E299
S113016091E00E94E100409A4DE465E081E00E9444
S1130170A30140E051E061E081E00E94810147E099
S113018051E060E082E00E948101789480911F0137
S1130190882321F00E94910010921F018FE99FE0B3
S11301A00197F1F700C00000F1CFFC01408121E08C
S11301B030E002C0220F331F6A95E2F72427208320
S11301C0089514BC85B5836085BDEEE6F0E08081BA
S11301D08160808388E186BD089544989BB19F70B7
S11301E09BB99BB1282F207F922B9BB9439AEFE1B7
S11301F0F3E03197F1F700C0000043989BB19F7082
S11302009BB99BB18295807F892B8BB9439A8FE1EF
S113021093E00197F1F700C000004398EFE3FFE19A
S11302203197F1F700C000000895449A9BB19F7084
S11302309BB99BB1282F207F922B9BB9439AEFE166
S1130240F3E03197F1F700C0000043989BB19F7031
S11302509BB99BB18295807F892B8BB9439A8FE19F
S113026093E00197F1F700C000004398EFE3F6E054
S11302703197F1F700C00000089581E00E94ED007D
S11302802FEF89EF90E0215080409040E1F700C0CB
S1130290000008950F931F93CF93DF9380EF8AB9E3
S11302A03C9A3A9A3B9A2FEF83EC99E02150804094
S11302B09040E1F700C00000C2E1D1E00BE111E0A1
S11302C089910E94ED008FE19EE40197F1F700C04F
S11302D00000C017D107A1F70E943D01DF91CF9123
S11302E01F910F910895813019F480E8860F06C09C
S11302F0823019F480EC860F01C080E00E94ED008A
S11303000895EF92FF920F931F93CF93DF931F9261
S1130310CDB7DEB78983E42EF52E89810E9473015F
S11303200E2D1F2DF80181918F010E941501F801F6
S113033080818111F7CF0F90DF91CF911F910F91A1
S1130340FF90EF900895CF93C42F0E9473018C2FD8
S11303500E941501CF910895CF92DF92EF92FF9200
S11303600F931F93CF93DF93C82EE901E42EF12C52
S1130370E114F104C1F16150D62ED40E01E010E075
S11303806D2D8C2D0E9473019E01ADECBCEC0E947E
S1130390FC019695879596958795969587959C01EA
S11303A0220F331F880F991F880F991F880F991FD9
S11303B0820F931F9E01281B390BC90180630E9481
S11303C015019E01ADECBCEC0E94FC01EC01D6953C
S11303D0C795D695C795D695C7950F5F1F4FDA94E5
S11303E0E016F10668F6DF91CF911F910F91FF900F
S11303F0EF90DF90CF900895A29FB001B39FC0010A
S1130400A39F700D811D1124911DB29F700D811D3C
S10D04101124911D0895F894FFCF04
S113041A48692044616900497468752072656E648C
S10F042A750030303020280C04850600DA
S9030000FC
