:100000000C9434000C9449000C9449000C94490061
:100010000C9449000C9449000C9449000C9449003C
:100020000C9449000C9449000C9449000C9449002C
:100030000C9449000C9449000C9449000C9449001C
:100040000C9449000C9449000C9449000C9449000C
:100050000C9449000C9449000C9449000C944900FC
:100060000C9449000C94490011241FBECFEFD8E036
:10007000DEBFCDBF11E0A0E0B1E0E8E7F2E002C0F2
:1000800005900D92A031B107D9F70E944B000C9456
:100090003A010C9400002FEF89E698E1215080404E
:1000A0009040E1F700C000000E94D8002FEF83EDE0
:1000B00090E3215080409040E1F700C000004DE403
:1000C00065E080E00E9431012FEF83ED90E3215045
:1000D00080409040E1F700C0000040E051E061E066
:1000E00081E00E940F012FEF83ED90E321508040CB
:1000F0009040E1F700C00000F6CF44989BB19F709C
:100100009BB99BB1282F207F922B9BB9439AEFE19B
:10011000F3E03197F1F700C0000043989BB19F7066
:100120009BB99BB18295807F892B8BB9439A8FE1D4
:1001300093E00197F1F700C000004398EFE3FFE17F
:100140003197F1F700C000000895449A9BB19F7069
:100150009BB99BB1282F207F922B9BB9439AEFE14B
:10016000F3E03197F1F700C0000043989BB19F7016
:100170009BB99BB18295807F892B8BB9439A8FE184
:1001800093E00197F1F700C0000043989AE69A9532
:10019000F1F700C0089581E00E947D002FEF89EF04
:1001A00090E0215080409040E1F700C000000895A9
:1001B0000F931F93CF93DF9380EF8AB93C9A3A9ABB
:1001C0003B9A2FEF83EC99E0215080409040E1F77B
:1001D00000C00000C7E0D1E000E111E089910E9479
:1001E0007D008FE19EE40197F1F700C00000C01789
:1001F000D107A1F70E94CB00DF91CF911F910F9102
:100200000895813019F480E8860F06C0823019F411
:1002100080E8860F01C080E00E947D000895EF9283
:10022000FF920F931F93CF93DF931F92CDB7DEB74B
:100230008983E42EF52E89810E9401010E2D1F2D48
:10024000F80181918F010E94A500F8018081811140
:10025000F7CF0F90DF91CF911F910F91FF90EF900B
:100260000895CF93C42F0E9401018C2F0E94A500F6
:08027000CF910895F894FFCF2F
:100278004869204461690030303020280C04850624
:00000001FF
