:100000000C9434000C9449000C9449000C94490061
:100010000C9449000C9449000C9449000C9449003C
:100020000C9449000C9449000C9449000C9449002C
:100030000C9449000C9449000C9449000C9449001C
:100040000C9449000C9449000C9449000C9449000C
:100050000C9449000C9449000C9449000C944900FC
:100060000C9449000C94490011241FBECFEFD8E036
:10007000DEBFCDBF11E0A0E0B1E0E6E9F2E002C0F2
:1000800005900D92AC31B107D9F70E944B000C944A
:1000900049010C9400002FEF89E698E1215080403F
:1000A0009040E1F700C000000E94E7002FEF83EDD1
:1000B00090E3215080409040E1F700C000004DE403
:1000C00065E081E00E9440012FEF83ED90E3215035
:1000D00080409040E1F700C0000040E051E061E066
:1000E00081E00E941E012FEF83ED90E321508040BC
:1000F0009040E1F700C0000047E051E060E082E09E
:100100000E941E012FEF83ED90E32150804090402C
:10011000E1F700C00000F6CF44989BB19F709BB9F7
:100120009BB1282F207F922B9BB9439AEFE1F3E0FC
:100130003197F1F700C0000043989BB19F709BB9C5
:100140009BB18295807F892B8BB9439A8FE193E095
:100150000197F1F700C000004398EFE3FFE131970A
:10016000F1F700C000000895449A9BB19F709BB9BD
:100170009BB1282F207F922B9BB9439AEFE1F3E0AC
:100180003197F1F700C0000043989BB19F709BB975
:100190009BB18295807F892B8BB9439A8FE193E045
:1001A0000197F1F700C0000043989AE69A95F1F79D
:1001B00000C0089581E00E948C002FEF89EF90E04D
:1001C000215080409040E1F700C0000008950F9357
:1001D0001F93CF93DF9380EF8AB93C9A3A9A3B9A68
:1001E0002FEF83EC99E0215080409040E1F700C070
:1001F0000000C2E1D1E00BE111E089910E948C0086
:100200008FE19EE40197F1F700C00000C017D1070D
:10021000A1F70E94DA00DF91CF911F910F9108950D
:10022000813019F480E8860F06C0823019F480EC22
:10023000860F01C080E00E948C000895EF92FF922B
:100240000F931F93CF93DF931F92CDB7DEB78983B0
:10025000E42EF52E89810E9410010E2D1F2DF8012C
:1002600081918F010E94B400F80180818111F7CF44
:100270000F90DF91CF911F910F91FF90EF90089514
:10028000CF93C42F0E9410018C2F0E94B400CF91F5
:060290000895F894FFCF71
:1002960048692044616900497468752072656E6416
:0C02A600750030303020280C0485060064
:00000001FF
